:020000040800F2
:10400000005000205141000835AA000837AA0008D6
:1040100039AA00083BAA00083DAA000800000000D9
:10402000000000000000000000000000C1A900081E
:104030003FAA000800000000F1A9000841AA0008FA
:1040400099410008994100089941000899410008E8
:1040500099410008994100089941000899410008D8
:1040600099410008994100089941000875AA000883
:1040700099410008994100089941000899410008B8
:10408000EDB20008F9B2000881AA000899410008C1
:1040900099410008994100089941000805B30008BA
:1040A0009941000831AC0008994100089941000885
:1040B00049AC00083DAC00089941000855AC000827
:1040C00021B1000899410008994100089941000870
:1040D0009941000899410008994100089941000858
:1040E000994100089941000899410008000000002A
:1040F00000000000000000000000000000000000C0
:0C41000000000000000000005FF8E0F18B
:1041100010B5054C237833B9044B13B10448AFF301
:1041200000800123237010BD680000200000000003
:10413000F0C0000808B5034B1BB103490348AFF3B7
:10414000008008BD000000006C000020F0C00008E6
:10415000002103E00B4B5B58435004310A480B4BE2
:1041600042189A42F6D30A4A02E00023136004324E
:10417000084B9A42F9D307F035F907F065FF07F0CD
:10418000B7F9FEE724F000080000002068000020D6
:10419000680000203C1D0020FEE700000648006883
:1041A000006880F3088862B661B6BFF34F8FBFF333
:1041B0006F8F00DF00BF000008ED00E04FF05003FC
:1041C00083F31188BFF36F8FBFF34F8FFEE70000BB
:1041D000002307B501930A4B1B68013301D0FFF799
:1041E000EDFF4FF0500383F31188BFF36F8FBFF3E0
:1041F0004F8F019B002BFCD003B05DF804FB00BF88
:104200006000002008B5EFF305830F2B07D90E4A95
:104210009B5C0E4A12789A4201D9FFF7CFFF4FF00C
:10422000E0230B4AD3F80C3D126803F4E063934299
:1042300008D94FF0500383F31188BFF36F8FBFF39A
:104240004F8FFEE708BD00BFF0E300E066180020D6
:1042500068180020054A08B513680BB9FFF7AEFFD0
:10426000013B13600BB983F3118808BD6000002087
:1042700008B54FF0500383F31188BFF36F8FBFF37E
:104280004F8F074A13680133012B136007D14FF09A
:10429000E023D3F8043DDBB20BB1FFF78FFF08BD7D
:1042A0006000002008B590F82130022B03D00423D1
:1042B0008363012008BD03681A6822F00E021A60A9
:1042C0001A6822F001021A60174A93421CD0143275
:1042D00093421BD0143293421AD0143293421AD014
:1042E000143293421AD0143293420CBF4FF480130D
:1042F0004FF080730D4A53604FF480730384436B17
:104300007BB198470020D5E70123F3E71023F1E7BD
:104310004FF48073EEE74FF48053EBE74FF48033B4
:10432000E8E71846C6E700BF080002400000024068
:1043300070B40425C66B026C34680368954025424E
:10434000196832D04D0730D51A6896065EBF1A68D4
:1043500022F004021A603D4A934219D0143293426B
:1043600018D01432934217D01432934217D014321B
:10437000934217D0143293420CBF4FF480034FF096
:104380008063334A5360C36A002B5CD070BC18470B
:104390000423F6E74023F4E74FF48063F1E74FF49A
:1043A0008043EEE74FF48023EBE70225954025425A
:1043B00035D08D0733D51A68940606D41A6822F0D2
:1043C0000A021A60012280F82120204A934219D063
:1043D0001432934218D01432934217D014329342BD
:1043E00017D01432934217D0143293420CBF4FF4BB
:1043F00000134FF00073164A5360002380F82030FA
:10440000836AC1E70223F6E72023F4E74FF4007341
:10441000F1E74FF40053EEE74FF40033EBE70825E4
:10442000954025420FD009070DD5196821F00E01DE
:104430001960012303FA02F2726083634FF4807300
:104440000384036BA0E770BC704700BF0800024004
:10445000000002402DE9F74F00221646644F654BDD
:10446000DFF894C1DFF894E14FF001080D6808FA15
:1044700006F808EA050438EA05057BD14D68032DE6
:1044800007D8013D022D00F28E80DFE805F09CA1E7
:10449000A700122D00F09F8073D8112D00F0958099
:1044A000FF2C98BF82464FF00F0988BF00F1040A25
:1044B0004FEA8605DAF8008088BF203D09FA05FB3F
:1044C00028EA0B0802FA05F548EA0505CAF8005083
:1044D000D1F804A01AF0805F4CD0BD6926F0030823
:1044E00045F00105BD61BD6908F1804805F0010591
:1044F000019508F5803806F0030B019D4FEA8B0B00
:10450000D8F8085009FA0BF925EA09093C4DA842E8
:1045100068D005F58065A84266D005F58065A8429B
:1045200064D005F58065A8420CBF0325042505FA73
:104530000BF545EA0905C8F808501D681AF4803FD4
:1045400014BF2543A5431D605D681AF4003F14BFE6
:104550002543A5435D609D681AF4801F14BF254361
:10456000A5439D60DD681AF4001F14BF2C4325EAA3
:104570000404DC600136102E7FF476AF03B0BDE892
:10458000F08FDFF880904D450DD018D8A9F580192F
:104590004D4508D009F570294D4504D0A9F580197D
:1045A0004D457FF47DAF8A68D2B1012A08BFC0F8BB
:1045B00010804FF0080218BFC0F8148070E76545FE
:1045C000F1D07545EDE7CA686AE7CA68043267E763
:1045D000CA68083264E7CA680C3261E700225FE704
:1045E00004225DE70025A2E70125A0E702259EE75A
:1045F00000100240000401400000311000003210A1
:104600000008014000002210002337B50268019322
:104610009368DB0702D5002003B030BD93681249D0
:1046200043F001039360114B1B68B3FBF1F301935B
:10463000019BABB90E4C2568936813F00103EAD1D6
:104640002168491B0229F7D9826A80F8243042F098
:1046500010028262C26A42F00102C2620120DBE7FC
:10466000019B013BE3E700BF40420F004C000020EC
:104670006C180020036810B59A68D10701D4002097
:1046800010BD9A680A4922F001029A600C689A6883
:10469000D207F4D50A68121B022AF8D9836A43F0BC
:1046A00010038362C36A43F00103C3620120E7E79A
:1046B0006C180020436A9A6A12F0500F18D19A6A57
:1046C00042F400729A621A68926802F46022B2F5AB
:1046D000602F10D1DA6872B99A6A22F480729A62F5
:1046E0009A6AD20407D49A6A42F001029A62704729
:1046F0001B6A1B6B184770477047436A9A6A42F0FF
:1047000040029A62DA6A42F00402DA6270470000FC
:104710001A4A036890420AD0B0F1804F07D0A2F540
:104720009432904203D002F58062904215D14A68DB
:1047300023F070031343114A90420AD0B0F1804F26
:1047400007D0A2F59432904203D002F580629042E5
:1047500003D1CA6823F4407313434A6923F08003EA
:10476000134303608B68C3620B688362034B9842F8
:1047700004BF0B690363012343617047002C0140B0
:10478000034A0130116813685B1A8342FBD37047F8
:104790006C180020002337B5019390F824300446AC
:1047A000012B5FD0012380F82430FFF763FF05461B
:1047B000002839D1A36A2C4823F4885323F002033C
:1047C00043F00203A362294B1A68294B59685B68BE
:1047D000C1F3C221415CC3F38133013322FA01F1F9
:1047E0005B00B1FBF3F3B2FBF3F252000192019BC9
:1047F000F3B92046FFF708FF23689A6842F00802E1
:104800009A601C4A10689968090715D4996841F0A4
:10481000040199601068996849071ED4A36A23F0BF
:10482000030343F00103A362002384F8243011E062
:10483000019B013B0193DAE71168091A0A29E2D9C1
:10484000A36A012523F0120343F01003A36200239F
:1048500084F82430284603B030BD1168091A0A29AB
:10486000D9D9EDE70225F5E76CC200084C0000201D
:10487000001002406C18002043689A684B608A6000
:104880009A6851609960036808610133036070475A
:1048900030B50C68631C0AD103695A684A6091609C
:1048A0008B605960036808610133036030BD00F11B
:1048B0000802134652681568A542FAD9EDE7036964
:1048C000D0E901128A6051605968814208BF5A607C
:1048D000002202611A68013A1A60186870470000E5
:1048E000024A136801331360704700BF7418002038
:1048F00038B5C368DC6844B94FF0500383F31188BE
:10490000BFF36F8FBFF34F8FFEE704F11805284602
:10491000FFF7D5FF114B1B68E3B9251D2846FFF7AC
:10492000CEFF01230E49E26A086893400343142036
:104930000B6029460B4B00FB0230FFF79DFF0A4B33
:10494000E26A1B68DB6A9A4285BF0120074B0020A0
:10495000186038BD29460648EFE700BF74180020EC
:104960007C180020981700208C170020381D00208C
:104970001C1D0020F8B50F4D0F4EFFF779FC2C6879
:104980000768336842689F4201D0944210D20B6896
:10499000A71A9F420AD21B1B13440B6033680360A3
:1049A0002B6843600020FFF755FCF8BD00230B6027
:1049B0000120F8E7341D0020141D002008B9064B23
:1049C0001868026B0020135CA52B02D0C0F38F0087
:1049D00070470130F7E700BF8C170020064A1368C4
:1049E0001968064B19B94FF0FF321A607047126808
:1049F000D268D2685268F8E790170020101D002096
:104A00002DE9F84F3C4B1B68002B6ED13B4B1D68CA
:104A100001351D60BDB93A4B1A68126842B14FF0BA
:104A2000500383F31188BFF36F8FBFF34F8FFEE7FF
:104A3000344A1968106818601160334A13680133EA
:104A40001360FFF7CBFF314E00243368304F9D4297
:104A500010D214222F4B1B68DB6A5343FB58022BE6
:104A60002D4B28BF01241B68002B18BF01242046B2
:104A7000BDE8F88FDFF888A0DFF8A090DAF8003002
:104A80001B681BB94FF0FF333360E2E7DAF8003000
:104A9000DB68D3F80CB0DBF80420954201D2326019
:104AA000D7E70BF104084046FFF709FFDBF82820A1
:104AB0001AB10BF11800FFF702FF0122DBF82C00FE
:104AC000D9F8003082401A43C9F800201422414628
:104AD00002FB0070FFF7D0FE0E4BDBF82C201968AC
:104AE000CB6A9A4228BF0124C8E70D4A0024136804
:104AF00001331360BBE700BF74180020341D002091
:104B00009017002094170020141D0020101D002075
:104B1000981700208C170020381D00207C180020DA
:104B2000181D002032492DE9F8430B6843B94FF0B6
:104B3000500383F31188BFF36F8FBFF34F8FFEE7EE
:104B4000FFF796FB0B68013B0B600C6824B100205B
:104B5000FFF780FBBDE8F883264B1B68002BF6D0DF
:104B6000254D264EDFF898801FE0EB680127DC68B2
:104B700004F1040904F11800FFF7A1FE4846FFF70D
:104B80009EFE1420E26A316807FA02F30B4300FB31
:104B9000028049463360FFF76FFE1A4BE26A1B68DA
:104BA000DB6A9A4201D3184B1F602B68002BDCD1C3
:104BB0000CB1FFF713FF154D2C6844B10127124EBD
:104BC000FFF71EFF00B13760013CF9D12C600E4B9E
:104BD0001B68002BBBD04FF0E0234FF08052C3F88E
:104BE000042DBFF34F8FBFF36F8F0120B0E700BFDD
:104BF00074180020701800201C1D00207C18002054
:104C0000981700208C170020381D0020181D002048
:104C1000054B1B6833B1054B1B68002B0CBF0220F2
:104C20000020704701207047301D002074180020BC
:104C30002DE9F04104464FF00108FFF719FB90F809
:104C400045501B4F6DB200F12406002D17DCFF23E9
:104C50004FF0010884F84530FFF7FCFAFFF708FB36
:104C600094F84450124F6DB204F11006002D12DC7E
:104C7000FF2384F84430BDE8F041FFF7EBBA636AE4
:104C8000002BE4D03046FFF733FE08B1C7F80080B0
:104C9000013D6DB2D9E72369002BE9D03046FFF71B
:104CA00027FE08B1C7F80080013D6DB2DEE700BF06
:104CB000381D002070470020704700000A4B588ABA
:104CC00080B278B1188980B260B11A89188992B21D
:104CD000052A94BF42F210734EF6602380B288BF5B
:104CE00005385843704700BF1418002038B5134AE0
:104CF000538A9BB20BB9002038BD13899BB2002B9D
:104D0000F9D00F4A0F4B11681B6843EA010288B1C2
:104D1000002AF1D00C4D2C68E41AFFF7CFFF844233
:104D2000E9D92868411AFFF7C9FF814294BF0020E2
:104D30000120E1E7002ADED0ECE700BF14180020D4
:104D40001C16002020160020341D0020034B588A1A
:104D500080B2003818BF0120704700BF141800202F
:104D6000034BD88A80B2003818BF0120704700BFBB
:104D700014180020034B188D80B2003818BF012092
:104D8000704700BF14180020F8B5002506462C46D1
:104D90001427EBB207FB03639A684AB1DB6813B9C7
:104DA0000134E4B202E098470028F9D10135F0E778
:104DB0002046F8BD0B4B70B533F8305003EBC00301
:104DC0005C88094B460003EB4000818082883344B5
:104DD00092B2AA4238BF85809A8892B2A24288BF16
:104DE0009C8070BDD2EB00081418002008B5104B51
:104DF000D9885B8C89B29BB273B1143189B2B1F599
:104E0000117F88BF3C210120FFF7D4FFB1F5117F4E
:104E100014BF0020012008BD0A3189B2B1F5967F88
:104E200088BF0A210120FFF7C5FFB1F5967FEFE7A4
:104E30001418002008B5144B198E5B8C89B29BB2F4
:104E40009BB179B140F25133143189B2994288BF94
:104E500000211620FFF7AEFFB1F5527F34BF0020CE
:104E6000012008BD4FF4F071F3E759B10A3189B25E
:104E7000B1F5E17F88BF00211620FFF79BFFB1F558
:104E8000E17FEBE7FA21F7E714180020F0B5114CA9
:104E9000114E04EB40039A8806EBC005698892B274
:104EA0008A424FEA400703D136F830209A8006E064
:104EB000AA8898888D1A80B2A84207DB99803C4462
:104EC000A08880B2431A58425841F0BD98880244E5
:104ED00092B2EBE714180020D2EB000870B50F2057
:104EE000FFF7D4FF05462748018E8288C388408C8F
:104EF00089B280B292B29BB280B3052001EBC101AE
:104F000002EBC206A031A03603EBC304B1FBF0F103
:104F1000B6FBF0F6A034B4FBF0F489B2B6B20A23C3
:104F2000B1FBF3F1B6FBF3F6A4B2B4FBF3F401EB7F
:104F300081014900162089B2FFF73CFF06EB86018C
:104F40004900002089B2FFF735FF04EB84014900D6
:104F5000012089B2FFF72EFF284670BD09242039B1
:104F6000203A01EB810102EB820291FBF4F192FB0A
:104F7000F4F6203B03EB830393FBF4F489B2B6B25F
:104F8000CDE700BF1418002038B500230122104DD2
:104F900004462B7003681A70D0E901311420097897
:104FA0001B6800FB0133187C222809D8FFF76EFF2D
:104FB0002B7813B1032223691A6001232B7038BDAB
:104FC000586808B18047F3E7E3681A70F0E700BF5C
:104FD000C012002070B5224B224D9A689B6882F067
:104FE0000202DB435B0003F00203C2F3400243EA28
:104FF000020013431FBF1C4B1A681C4B1A602B780E
:1050000083420FD168B1184B194A1B6812689B1A6A
:10501000B3F5C87F20D9012820D002280CBF082072
:10502000202070BD104C124920B1032B00D118462E
:1050300000230AE022680E68921BB2F5C87F09D2ED
:10504000012B02D0022B18BF1023226828700A609F
:105050001846E6E70346F8E70020E2E70420E0E729
:10506000000C0140A8120020341D00201C16002056
:10507000AC12002048F2E803434364205B22DB0BC0
:105080004343F0B5B3FBF2F3214A518E89B239B1F3
:10509000518E89B28B4291BF0023528E92B29B1ADD
:1050A0001C4A98B21360D8B101221B4931F8224042
:1050B0009500A04215D24FF47A76013A31F8227069
:1050C00098B2C01B7043E41B90FBF4F001EB82022A
:1050D000294452884B889B1A584390FBF6F01044A1
:1050E000F0BD0132322AE1D14FF47A729BB2A3F5BE
:1050F0001243093B02FB03F04FF43C7390FBF3F0C7
:105100000A23584390FBF2F000F5F570E8E700BF82
:10511000141800202416002080EE0008014B1868A7
:10512000704700BF341D00202DE9F74F002543884C
:1051300086462C4628462E46FF2242F6E0694FF06E
:10514000320AC3F302330193394B1D60019B5FFAAE
:1051500085FC9C4541D20EEB85035B6813F040480B
:1051600016D1C3F389270AFB07F74F450ED8C3F3BF
:105170000903B7FBF3FBBBF1320F07DCBE4201DBD7
:10518000FF2A03D11C463E46624640460135DDE714
:10519000B8F1404FFAD113F0405FF7D103F07F0729
:1051A000C3F3474303EB83034FF02D0803EB830363
:1051B0009B009BB24B45A8BF4B4607EB870708FBFC
:1051C00007F84345A8BF4346B34201DCFF2ADDD1BF
:1051D0003C461E4662460120D8E702251023FF2ADE
:1051E0008D70CB701BD00132120702F0E04290B1FB
:1051F0001423B6FBF3F605230434B4FBF3F442EABC
:10520000462204F07F04144344F080744C60012073
:1052100003B0BDE8F08F224342EA8424F4E70A2376
:105220000B7128234B7100238B711123CB71EEE797
:105230008817002070470000F0B55442A0421E4677
:10524000059D134635DD602833DC002800EB02079E
:10525000B6BF44420024E4B2602FC4BFC0F1600274
:10526000D2B219BB13492718096805EB040C0F4487
:1052700021468A4213D8102E1BD1102E18BF0023AE
:105280000D492344096820442B440844A24210D904
:1052900013F8011B013400F8011BE4B2F6E71CF817
:1052A00001EB013107F801EBC9B2E2E70829E4D0CC
:1052B000E1E7F0BD30110020341100200229F7B5DC
:1052C00004461CD11022214B21491A700C22214B7B
:1052D0001A70204B204E1D781C4BB6F900701B78BD
:1052E0003846DA086A4304FB021100911B492A463A
:1052F00091F900103D44FFF79FFF358009E0012838
:1053000009D1164BB3F900201AB913490A800822B3
:105310001A8003B0F0BDFCD90C4A0E4B49B90820E5
:1053200010700622B4F58E7F1A700DD3002421462A
:10533000CFE7102111700C22B0F58E7F1A70F5D2D4
:105340000749023CA4B2C4E70649FAE7F01200207C
:10535000C4E60008F1120020FA110020FC11002020
:10536000E4C800089CE4000838B504460D462378DC
:105370008BB1F02B05D898B201342946FFF79EFF78
:10538000F5E7607838B1F03B0F38C3EB03230344F3
:1053900098B20234F1E738BD002205490A80054978
:1053A0000A800178012914BF11460130FFF7DCBFE4
:1053B000FA110020FC1100200A4B10B50C4603F135
:1053C000E80203EB4003B3F8920004EB44041044FA
:1053D000FFF7E2FF0022044BA400023C1C80034BB9
:1053E0001A8010BDD0C20008FA110020FC11002064
:1053F00008B507210520FFF7DFFF064B06485B8C49
:10540000064A9BB2002B08BF1046BDE808400121A8
:10541000FFF7AABF1418002078C10008CDC100080A
:1054200008B507210F20FFF7C7FF084B08489B8CE2
:1054300001219BB2002B40F2FE3308BF4FF4806382
:105440001844BDE80840FFF78FBF00BF14180020C4
:10545000B8C30008072108B50846FFF7ADFF094BA0
:10546000198A89B2012908D002294FF0010106D01A
:105470000548BDE80840FFF777BF0448F9E704484E
:10548000F7E700BF14180020B0C70008B2C7000833
:10549000B4C70008072108B50920FFF78DFF0B4BA3
:1054A000198B89B202290AD003290BD001291ABF0E
:1054B000012107480748BDE80840FFF755BF012113
:1054C0000548F8E701210548F5E700BF141800205A
:1054D000C6C70008BAC70008BCC70008BEC7000896
:1054E000072108B51820FFF767FF094BD98C89B24F
:1054F000012908D002294FF0010106D00548BDE876
:105500000840FFF731BF0448F9E70448F7E700BF58
:1055100014180020C6C70008C8C70008CAC700087A
:1055200007210C20FFF748BF05210B20FFF744BFE0
:10553000072108B51B20FFF73FFF0B4BD98A89B223
:10554000022908D0032909D001290AD10748BDE85A
:105550000840FFF709BF01210548F8E70121054888
:10556000F5E701210448F2E714180020B8C7000845
:10557000C2C70008B6C70008C0C7000805210D2033
:10558000FFF71ABF37B50446284B03F1E80003EBD9
:105590004403B3F8D4301844FFF7FEFE244AD38AFC
:1055A0009BB2022B23D0032B14BF4FF4FA754FF498
:1055B0009675204B20491B78E3B9D08A80B2C8B1D8
:1055C0000B681E48A3421E4B02D00C601968016094
:1055D0001B680168928A5B1A92B2B3FBF5F302B3BF
:1055E0000322B3FBF2F202EB42029B1A0AE04FF4F1
:1055F000C875DEE78D230B60D38A9BB2002B0CBFEE
:10560000022300236020444304EB43130D4C00218C
:105610002344009310234E201A46FFF70DFE03B0DB
:1056200030BD022B28BF0223ECE700BFD0C2000828
:10563000141800204C10002054000020D412002028
:10564000341D0020C1E900080020FFF79BBF0120A6
:10565000FFF798BF0220FFF795BF0320FFF792BF27
:105660000420FFF78FBF37B50C4611460022042CEB
:105670000092ADF804208DF8062030D90A22B0FB44
:10568000F2F502FB150002308DF80500B5FBF2F0D3
:1056900002FB105502358DF8045080B20A25B0FB8C
:1056A000F5F205FB120002308DF8030090B20A25D6
:1056B000B0FBF5F205FB120002308DF8020090B24B
:1056C0000A25B0FBF5F205FB120002308DF801004F
:1056D00090B209E06846FFF747FE03B030BDDDD069
:1056E000032CE4D0012CEBD10A25B0FBF5F205FB2D
:1056F000120002308DF80000002BEBD06A46002328
:105700000C20013C9C42E5DD1578022DE2D102F827
:10571000010B0133F6E7000070B50A2604211020C2
:10572000FFF74AFE0C4B0221DC890123A4B2B4FB33
:10573000F6F51A462846FFF796FF01210748FFF7BE
:1057400013FE012306FB1540BDE870401A461946BA
:1057500080B2FFF788BF00BF141800207AC100088C
:105760001120052110B5FFF727FE094BB3F84400BF
:1057700080B228B9BDE8104001210648FFF7F4BD0A
:105780000123BDE810401A460321FFF76CBF00BF9C
:1057900014180020C0C7000808B505210320FFF732
:1057A0000BFE0A4A538B9BB22BB901210848BDE876
:1057B0000840FFF7D9BD0123508B022180B21A4661
:1057C000FFF751FF01210348F1E700BF1418002043
:1057D000C0C700087CC100080721042010B5FFF7EE
:1057E000EBFDBDE810400122034B1146588A00230F
:1057F00080B2FFF738BF00BF141800200521012038
:1058000010B5FFF7D9FDBDE81040044B0321D8883F
:10581000012380B21A46FFF726BF00BF14180020EC
:1058200008B505210220FFF7C7FD134B1A8992B274
:105830002AB901211148BDE80840FFF795BD1A8932
:10584000188992B2052A0CD8012380B200EB80009F
:105850004000022180B21A46FFF705FF01210848E7
:10586000E9E701230538022180B21A46FFF7FBFE63
:1058700001210448DFE700BF14180020C0C700085A
:105880007EC100087CC1000808B505211220FFF781
:1058900093FD0A4A938E9BB22BB901210848BDE8BB
:1058A0000840FFF761BD0123908E022180B21A46A5
:1058B000FFF7D9FE01210348F1E700BF14180020CB
:1058C000C0C7000880C100080521082010B5FFF7F7
:1058D00073FD094A138E9BB243B1BDE8104001230A
:1058E000108E03211A4680B2FFF7BDBE0121BDE82C
:1058F00010400248FFF738BD14180020C0C7000848
:105900000621142010B5FFF757FDBDE81040044BE9
:105910000221588F012380B21A46FFF7A4BE00BFB0
:10592000141800200621152010B5FFF745FDBDE82D
:105930001040044B0221188F012380B21A46FFF752
:1059400092BE00BF1418002070B5154D0521162019
:10595000FFF732FD2B8D9BB2DBB101230A24288D8A
:105960001A4680B21946B0FBF4F0FFF77CFE012125
:105970000C48FFF7F9FC288D80B2B0FBF4F304FB70
:105980001300BDE87040012380B21A461946FFF7A4
:105990006ABE0121BDE870400348FFF7E5BC00BFC7
:1059A000141800207AC10008C0C7000807211C2075
:1059B00010B5FFF701FDBDE81040044B588D0123E1
:1059C00080B21A461946FFF74EBE00BF14180020D9
:1059D00007211D2010B5FFF7EFFCBDE81040044B78
:1059E000988D012380B21A461946FFF73CBE00BFCE
:1059F000141800200221FFF761BC002814BF1020FA
:105A00001120FFF7F7BF000008B50E200721FFF7B0
:105A1000D3FC054B188CBDE8084080B2003818BF95
:105A20000120FFF7EABF00BF1418002008B50620C8
:105A30000721FFF7C1FC054BD88BBDE8084080B2B9
:105A4000003818BF0120FFF7D8BF00BF141800208E
:105A500008B50A200721FFF7AFFC054B988BBDE87E
:105A6000084080B2003818BF0120FFF7C6BF00BF52
:105A70001418002008B513200721FFF79DFC054BE3
:105A8000D88EBDE8084080B2003818BF0120FFF76B
:105A9000B4BF00BF1418002008B51A200721FFF773
:105AA0008BFC054B988ABDE8084080B2003818BFCF
:105AB0000120FFF7A2BF00BF14180020F8B51E4B4D
:105AC00005460E201C78FFF795FF1F20B5FBF0F070
:105AD0001A4BC0F10A0010F0F80F1968C5B2C0F3F4
:105AE000C4060BD0F32C8CBF01230D2320460027C6
:105AF0002344DBB2421CD2B2934219D16022F32C70
:105B000002FB06F64FF0FF038CBF01220D2205F0C9
:105B10000705AB402244D2B263F0FF03601CC0B261
:105B2000904208D034440D5D1D400D550446F5E704
:105B30000F541046DEE7F8BDFA11002030110020A6
:105B400013B50122446801AB0078A04708B19DF865
:105B5000040002B010BD000020220C4B1A6102228A
:105B60001A610F2200BF013AFCD14FF400321A61D2
:105B70000F2200BF013AFCD14FF400121A610F222C
:105B800000BF013AFCD102221A61704700080140AF
:105B90004FF40032094B1A610F2200BF013AFCD1C9
:105BA00020221A610F2200BF013AFCD102221A61A1
:105BB0000F2300BF013BFCD1704700BF000801402C
:105BC0000222094B1A610F2200BF013AFCD12022A8
:105BD0001A610F2200BF013AFCD14FF400129868FD
:105BE0001A61C0F340007047000801400A4B78B1C9
:105BF00002221A610F2200BF013AFCD120221A6151
:105C00000F2200BF013AFCD14FF400121A61704715
:105C10004FF40032EDE700BF0008014010B5014627
:105C2000082401F08000013CFFF7E0FF490014F078
:105C3000FF04C9B2F5D10222034B1A61FFF7C0FF7E
:105C4000B0FA80F0400910BD00080140202210B5D4
:105C5000214B83F83D20214B1868002835D0036C78
:105C600043B14FF0500383F31188BFF36F8FBFF33D
:105C70004F8FFEE7036853B9836843B14FF0500379
:105C800083F31188BFF36F8FBFF34F8FFEE7FEF7EB
:105C9000B9FAEFF311844FF0500383F31188BFF387
:105CA0006F8FBFF34F8F826BC36B9A420BD290F80A
:105CB00045100132FF294BB2826307D1436A13B109
:105CC0002430FEF715FE84F3118810BD01335BB25A
:105CD00080F84530F7E700BF3C1400204C1200204C
:105CE000426A92F83D3092F83E10212BD8B2C9B2E8
:105CF000136803D022280CD120290AD1596821F435
:105D000000615960002151855A6842F440725A601E
:105D10007047196821F480611960196841F40071B5
:105D20001960596821F480515960596821F4006163
:105D3000596000235385136C0BB1FFF787BF2021F7
:105D400082F83D1092F83E1082F83E30F5E7436A43
:105D500019680A6822F480620A60002220215A85AC
:105D600083F83D1083F83E201A6C42F010021A644A
:105D7000FFF76CBF436A1A68116821F480611160F3
:105D80000021586B59854163986B416393F83D003E
:105D900060284FF0200083F83D0083F83E1008BFD4
:105DA0001964136823F001031360FFF74FBF00006D
:105DB0004AF6AA22014B1B681A6070479014002013
:105DC0004FF0E0204FF0805408B506490B68012BD6
:105DD00005D9C0F8044DBFF34F8FBFF36F8FFFF7A6
:105DE000E7FFF3E7981700200122084B1A7040F2F2
:105DF0001B12074B1A80074B1B68DA6240F20D1228
:105E00005A6340F682229A62704700BF4D1000200C
:105E100064180020E41400200022084B1A7040F29D
:105E20000D12074B1A80074B1B68DA624FF483721E
:105E30005A6341F204529A62704700BF4D1000202D
:105E400064180020E4140020037B826810B530F849
:105E50001340121B0A44826020F81310013303F030
:105E60000303037310BD000010B5044671B10D4B60
:105E70000D481B68D96B1A6C11445A6C9B6C114409
:105E8000194489B2C90089B2FFF7DEFF064B9B684F
:105E9000002BB8BF0333C3F38F039B00B3FBF4F0B5
:105EA00080B210BD3C130020C412002008B5084B7E
:105EB0000146D88D80B2FFF7D7FF2D234043B0FBBA
:105EC000F3F0044BC0EB00201B88B0FBF3F008BDDF
:105ED000141800206418002010B50446002C084651
:105EE00006DA094BD88D80B2FFF7BEFF002010BD47
:105EF000FFF7DCFFC4EB0424B4FBF0F0FF2828BF5D
:105F0000FF20C0B2F3E700BF1418002010B5012134
:105F1000FFF7E2FF174B902804461A7820D90AB100
:105F200000221A700A21144A1B781180134A147037
:105F3000134A12789A4202D0C3B1FFF755FF0020EE
:105F4000FFF7B4FF4443FF20E821B4FBF0F418202E
:105F50000C4A13684B4300FB0434240A146010BD40
:105F60006F28DFD8002ADDD10122DAE7FFF754FFDE
:105F7000E5E700BF500000204810002080170020F7
:105F80004D1000208018002008B568B100210B4694
:105F9000134A013332F8020BDBB2102B0144F8D163
:105FA000104889B2FFF750FF0E4B0F499A68002343
:105FB000002AB8BF0332C2F3CE0231F81300904278
:105FC00007D2013331F8130000EB8000400080B2AB
:105FD00008BD02335C2BF0D14FF4E170F8E700BF4D
:105FE00084000020B012002094E8000810B547F6A5
:105FF000C070FFF73FF804460020FFF7C5FF0A23F3
:10600000B0FBF3F0013C80B2204410BD08B5084B52
:1060100008481B68D96B1A6C11445A6C9B6C11446C
:10602000194489B2490089B2FFF70EFF084608BD3E
:106030000C1300209812002038B5044678B1FFF701
:10604000E5FFFFF717F805462046FFF79DFF0A23F7
:10605000B0FBF3F39BB2581920EAE07038BD044B53
:1060600098680028B8BF0330C0F38F00E9E700BF8D
:106070009812002010B5FFF7B9FF04460020FFF783
:10608000DBFF053CA4B284422CBF0020012010BDE0
:106090000020704737B5064C8DF8071001220146E5
:1060A000A56820780DF10703A84703B030BD00BFF5
:1060B000FC120020F8B5538803F01F040D2C224C6D
:1060C00007D113F4E04FC3F3023502D184F829500D
:1060D000F8BD164684F8311084F830005588432105
:1060E00025F46065558094F8293020785B0203F42C
:1060F00060631D4326F8025FC5F30235AD00134B04
:10610000023565F07F021A71A7680522B8472A4652
:1061100033464321A7682078B84704220C4B43211B
:10612000A5682078A84740F20160E36B60630340F4
:1061300008BF4FF0FF324FF0010002BFA26384F8A6
:106140002F001846C4E700BF481600205800002062
:1061500088EF0008074AD2E93903834206D192F852
:10616000EC30002B14BF04200020704798BF04338C
:10617000181A704748160020F8B50B460D4C064615
:106180006163E16B15460B4206D1FFF7E3FF07465B
:1061900020B141F00201E1633046F8BD6B1C84F888
:1061A0002F6002D13E46A563F6E723699847054470
:1061B000F8E700BF481600200023012213B50A4863
:1061C0008DF807304468114600780DF10703A047A9
:1061D00038B19DF807000138C0B2FD288CBF0020FF
:1061E000012002B010BD00BFFC12002010B5064C0B
:1061F000236823B9FFF7E0FF08B10123236020687B
:10620000431E5842584110BD5010002038B5FFF7CA
:10621000EDFFD8B1104B114DB3F8444095F82C3038
:10622000A4B2ABB995F83031182B0ED00C2B0CD092
:1062300014F0FF040ED02B6998472B6CC31A64200E
:106240006043834294BF0020012038BD0120FCE759
:106250001846FAE72046F8E71418002048160020F0
:1062600070B5154B154D06461C6828680430FEF7BE
:1062700026FB40B92A681249D06A01220B68824085
:1062800023EA02030B602B68A4195C6007D30D4B53
:1062900018682968BDE870400431FEF7F9BA0A4B66
:1062A000186829680431FEF7F3FA084B1A6894421B
:1062B00038BF1C6070BD00BF341D00208C1700204B
:1062C0007C1800209417002090170020101D00203B
:1062D00008B550B94FF0E0234FF08052C3F8042DB9
:1062E000BFF34F8FBFF36F8F08BD074B1B680BB118
:1062F000FDF764FFFEF7F4FAFFF7B2FFFEF712FCBA
:106300000028E7D0F0E700BF741800203220FFF724
:10631000DFBF000070B50D4E35680544FEF75AFE2C
:10632000044654B1FEF756FE0446FFF7EFFF33680C
:106330009D42F6D270BD002CFCD1FEF74BFE044608
:10634000FFF7E4FF33689D42F5D2F3E7341D0020E8
:10635000012838BF0120FFF7BBBF000010B50C4675
:10636000044B19681831FEF793FA2046BDE8104037
:10637000FFF776BF8C1700202DE9F04385B0044667
:10638000019140B94FF0500383F31188BFF36F8F31
:10639000BFF34F8FFEE7056C45B14FF0500383F319
:1063A0001188BFF36F8FBFF34F8FFEE7FEF730FC0E
:1063B00050B9019B63B14FF0500383F31188BFF3D1
:1063C0006F8FBFF34F8FFEE728469B4F9B4E96E0A3
:1063D0000546FAE7019B5BB9002D00F029814FF0DB
:1063E000500383F31188BFF36F8FBFF34F8FFEE726
:1063F00020B93B680293924B1B680393FDF72AFF79
:10640000FEF76EFAFDF734FF94F8443001A9FF2B34
:1064100004BF002384F8443094F8453002A8FF2BD1
:1064200004BF002384F84530FDF714FFFEF7A2FAFD
:10643000002840F09B80FDF71BFFA36B002B56D17B
:10644000FDF708FF2368002B3BD1FDF711FFA5687E
:10645000002D33D03268EB6AD26A93427ED2AA69A9
:10646000DFF8E081002AA1BF3268D26AC2F10602D9
:10647000AA61142202FB03836A699A426AD105F178
:1064800004094846FEF71BFA6F4B38B90120E96A48
:106490001A6800FA01F122EA01021A6032681968EA
:1064A000D26AEA62012505FA02F008431860142056
:1064B000494600FB0280FEF7DFF90120FDF7CAFE26
:1064C0000546019904F12400FFF748FF2046FEF736
:1064D000AFFBFEF727FB88B94FF0E0234FF0805267
:1064E000C3F8042DBFF34F8FBFF36F8F06E0204634
:1064F000FDF7B0FEFEF79CFBFEF714FB0120FDF755
:10650000B7FEA36B002B3FF465AF013BA363236889
:1065100043B94A4B1A681AB119688A6D01328A6503
:106520001B68A360236973B104F11000FEF7E0F962
:1065300048B14FF0E0234FF08052C3F8042DBFF371
:106540004F8FBFF36F8FFDF785FE0125284605B0FD
:10655000BDE8F0833368DB6AEB62AEE73368686DF1
:10656000DB6A98422CBF00200120A7E72046FEF7F7
:106570005FFBFEF7D7FAFDF77BFEA36B13B1FDF7C8
:1065800069FEBBE7FDF766FE002DDFD0FDF770FE6C
:10659000636A1BB1236B1B68C3F10603A468002C5C
:1065A00046D0A16D41B94FF0500383F31188BFF37A
:1065B0006F8FBFF34F8FFEE7626D934238BF134674
:1065C000E26A934234D0012932D11C4909688C42D5
:1065D00008D14FF0500383F31188BFF36F8FBFF3DF
:1065E0004F8FFEE7A169E3620029A4BFC3F1060350
:1065F000A3611423134D03FB02526369934217D125
:10660000261D3046FEF75BF90F4AE76A28B90124D8
:106610001368BC4023EA04031360012314201168AB
:10662000BB400B4300FB075031461360FEF724F9D3
:10663000FDF710FE002589E7141D00208C170020AF
:10664000341D0020981700207C18002008B5064B48
:106650001A6802B900BE64211868FFF78DFE431E58
:106660005842584108BD00BF0012002008B5044B35
:1066700032211868FFF780FE431E5842584108BD7A
:106680004C120020154B70B51D68154E6A6912F04A
:10669000800201D000201FE06C6914F480640FD1E7
:1066A0003268521A9042F1D21A6C032042F0200252
:1066B0001A6420221C6383F83C4083F83D200BE0E1
:1066C0006FF48061696104211964202101201A633B
:1066D00083F83C2083F83D1070BD00BF3C140020BF
:1066E0006C180020144B70B51D68144E6A6912F0C6
:1066F000400201D000200EE06C6914F010040BD0B1
:106700006FF010016961202101201A6483F83C2098
:106710001A6383F83D1070BD3268521A9042E5D278
:106720001A6C032042F020021A64202283F83C40B5
:1067300083F83D20EFE700BF3C1400206C180020D8
:1067400070B50546144A154E14686369DB4313F0AF
:10675000020014D0636913F4806311D023682021F0
:1067600043F4007323606FF4806363610423136454
:1067700000230120136382F83C3082F83D1070BD85
:106780003068401A8542E0D220211363032082F84A
:106790003D1082F83C30F2E73C1400206C180020D9
:1067A000F0B5114DDFF844C02E68070C012F0CBF67
:1067B0007469B46920EA0404A4B2B4FA84F46409E4
:1067C000A14201D000200EE0DCF80040E41AA24211
:1067D000ECD20023202203202B6385F83C3085F87F
:1067E0003D2085F83E30F0BD3C1400206C180020A0
:1067F000134B10B5DB68C3F30223C3F107041A1D62
:10680000042C28BF0424062A88BFDA1E4FF0FF3369
:1068100098BF0022A34021EA0303002803FA02F3F1
:10682000ACBF00F16040074A4FEA0313DBB2B5BFCB
:1068300000F00F0000F56140135480F8003310BDE4
:1068400000ED00E014ED00E013B590F83D30044693
:1068500003F0FF0200687BB91D4B84F83C2098428E
:1068600028D103F50333DA6942F00202DA61DB6909
:1068700003F002030093009B0223211D84F83D30A6
:10688000FDF746FF0123002084F8463084F83E30AF
:1068900084F83F3084F8403084F8413084F8423046
:1068A00084F8433084F8443084F8453084F83D302F
:1068B00002B010BDB0F1804FDED1064BDA6942F074
:1068C0000102DA61DB6903F001030193019BD3E765
:1068D000000400400010024010B54CF25034204932
:1068E000204B0868DA68D20733D4DA68910644BFCF
:1068F0002022DA60DA68D20606D4DA69D40703D433
:10690000D86810F0040023D0164AD36813F010039F
:1069100005D01549CB6943F00203CB611023D2683F
:10692000500706D5104943F00403CA6942F001023A
:10693000CA610C4AD169C90708D50B48C16941F041
:106940000401C161D16921F00101D1610120D3604D
:1069500010BD0A68121AA242C4D90320F8E700BF8A
:106960006C180020002002402816002015490B68F2
:106970001A6A22F001021A621A6A1A62124A9342D1
:106980000DD141F21112186A104208D140F244426E
:10699000186A104202BF5A6C22F400425A6441F253
:1069A0001112186A104208D140F24442186A10428B
:1069B00002BF1A6822F001021A60012381F83E30FA
:1069C000704700BF2C150020002C0140037F082BCE
:1069D00001D1FFF7CBBF704790F83E30012B17D1A4
:1069E000022380F83E3003681A6A22F001021A621C
:1069F0001A6A42F001021A620D4A934209D15A6C96
:106A000042F400425A649A6802F00702062A0AD148
:106A10007047B3F1804FF6D0064A9342F3D002F5A7
:106A200080629342EFD01A6842F001021A60704708
:106A3000002C01400004004010B5036804461A69A8
:106A400091070ED5DA6892070BD56FF002021A6132
:106A5000012202779B699B0701D1FFF7B7FF002353
:106A6000237723681A69500710D5DA6851070DD5C6
:106A70006FF004021A61022222779B6913F4407FAF
:106A800002D12046FFF7A2FF0023237723681A696B
:106A900012070FD5DA6810070CD56FF008021A61DB
:106AA00004222277DB69990702D12046FFF78EFF87
:106AB0000023237723681A69D20610D5DA68D00636
:106AC0000DD56FF010021A6108222277DB6913F4EA
:106AD000407F02D12046FFF779FF00232377236808
:106AE0001A69D1071CD5DA68D20719D56FF00102EF
:106AF0001A612368B3F1804F34D11E4A1E491388AE
:106B00000968013B9BB213801C4B1B78DBB20B6402
:106B10000B6C23B313889BB20BB31948FFF75CFFD0
:106B200023681A69100605D5DA68110644BF6FF0AC
:106B300080021A6123681A69520605D5DA68500680
:106B400044BF6FF040021A6123681A69910605D5A7
:106B5000DA68920644BF6FF020021A6110BDFFF799
:106B600005FFDDE7074A934201BF074A1368013377
:106B70001360D5E748100020E4140020801700209F
:106B80002C150020002C01406C180020F0B56E4C34
:106B90006E4E94F83D3087B003F0FF05002B5FD1B7
:106BA000C02212230127CDE902230223684802A94B
:106BB000CDE9047384F83C50FDF74CFCF369654A59
:106BC00043F40013F361F369182003F400130193F5
:106BD000019B614B6149C3E900258022C3E905554A
:106BE000C3E90325C3E90F109D60DD61D1F8800082
:106BF000DFF86CC1DFF86CE100EA0C001043C1F86B
:106C000080004FF480709D631884A3635C62564BD0
:106C1000C3E903254FF48052C3F800E0DA614FF076
:106C2000100E1422C3E901E5C3E90555C3E90F12AB
:106C3000CA6E02EA0C0242F4845242EA0E02CA66AA
:106C40009D6318840F211F205C626363FFF7D0FDF2
:106C50004FF00043454D20202B60FFF7C9FD6F60CA
:106C60002423206884F83D300368414A23F001035F
:106C7000036073683F49C3F30223D35C3E4A126842
:106C8000DA4063688B4294BF3C493D498A428CBFDD
:106C90000021012109B107B0F0BD364D3949AB42A1
:106CA000B2FBF1F188BF4FF49676416082BF714329
:106CB0004FF47A76B1FBF6F1AB4201F101010162CA
:106CC00002F1FF3223D85B00B2FBF3F2531C40F613
:106CD000FC72134233D0C3F30B03C361D4E9073210
:106CE00013430360D4E9032313438360D4E90532DB
:106CF0001343C3600368202243F0010303600023B1
:106D0000236484F83D20236384F83E30C3E7A16800
:106D100051B903EB4303B2FBF3F30133C3F30B03AA
:106D20007BB143F40043D8E719214B43B2FBF3F3A3
:106D30000133C3F30B0323B143F44043CDE70423F2
:106D4000CBE70123C9E700BF3C140020001002403C
:106D5000000C014080000240B013002000000240FF
:106D60000FC0FFFF6C000240F413002000E100E0C0
:106D70006CC20008A08601004C0000207F841E0029
:106D8000FF083D0040420F00F0B5284D11202A6851
:106D900085B01368402623F0010313600123CDE979
:106DA000010302238027224C694620460393009664
:106DB000FDF750FB26610097FDF74CFB65234FF470
:106DC00080022761A168090626D5122201234027E7
:106DD000CDE90123802602236946154803930097D5
:106DE000FDF738FB0096FDF735FB276126612A6821
:106DF000136843F40043136000BF2A68136823F448
:106E00000043136000BF2A68136843F00103136056
:106E1000FFF7BCFE05B0F0BD226100BF00BF00BFA0
:106E200000BF013B2661CDD1F4E700BF3C14002038
:106E3000000C014070B5826A044686B0002A3BD13E
:106E4000644B0168C262994280F8242003F56C43C8
:106E500040F0878099694FF4807541F40071996121
:106E60009B695D4903F400730293029B5B4B4FF4F3
:106E70008060C3E900128021C3E903152021C3E922
:106E800005014FF4805156481A649A60D9618168AF
:106E9000D86321F47F5121F0300141F4AD5181607C
:106EA0009A631D8423625C620F211220FFF7A0FC0D
:106EB0004FF480224B4B1A602046FDF7DBFBA36AA0
:106EC00013F0100340F0818000287ED1A26AE069AF
:106ED000616822F4885222F0020242F00202014369
:106EE000A068A262E268B0F5807F41EA420155D015
:106EF000012814BF00264FF480766569012D07D163
:106F0000002A4DD1A269013A46EA423545F40066AD
:106F10002268B0F5807F556825F4694545EA060585
:106F200055609668304D05EA060545EA010595600D
:106F300001D0012802D12369013B1B05D06A20F44E
:106F400070000343D3629268284B1340994230D1BA
:106F50000023E362A36A23F0030343F00103A36267
:106F600031E09A69032542F480629A619B69204866
:106F700003F480630193019B08230DEB0301CDE92A
:106F80000235FDF767FA1023CDE90235FDF762FA05
:106F90000423CDE90235FDF75DFA85E70646ACE747
:106FA000A26A42F02002A262E26A42F00102E262B8
:106FB000AEE7A36A23F0120343F01003A362E36A6F
:106FC00043F00103E36206B070BDA36A43F010030F
:106FD000C5E700BF00240140080002406C130020F8
:106FE0000000024000E100E0FDF7E1FFFE0E1FFFA0
:106FF0000008014090F83C3010B5012B21D002234D
:1070000080F83D30036809685A689C6822F0700275
:107010000A435A600B4A93420AD0B3F1804F07D01B
:10702000A2F59432934203D002F58062934202D1DA
:1070300024F080049C60012380F83D30002380F818
:107040003C3010BD002C01400023F7B5019390F8AF
:107050002430012B00F0858001231F2680F8243086
:107060004D680F690C68EA1B02EB82020F329640F2
:1070700046F44016BD426FEA0606036873D8D3F89B
:1070800038C0013F04FA02F242EA07520CEA06064F
:1070900032439A639A68D60707D49A68CE6922F475
:1070A000E04222F0010232439A608E69012E0CD137
:1070B000CA69B2F5E04F0BBF5A68826A42F4806237
:1070C00042F020020CBF5A6082624A69012A05D14F
:1070D000002E4CD15A6842F480525A60092C4FF06D
:1070E0000706D1F808C004EB440245D9DF681E3A10
:1070F000964027EA06060CFA02F23243DA60A4F15F
:107100001006012E98BF9A68CF689CBF42F4000217
:107110009A60022DDFF8A8C037D0032D3BD0012D97
:107120003FD15A6902EA0C023A435A61012E15D83E
:10713000244A93423ED19A6812020FD49A68102CC6
:1071400042F400029A6009D11F4B204A1B68B3FB2E
:10715000F2F30A2253430193019B43BB002380F8BF
:10716000243003B0F0BD9A6B16409E6392E7826AAA
:1071700042F020028262B1E71F69964027EA0606C4
:107180000CFA02F216431E61B9E79A6902EA0C0290
:107190003A439A61CAE7DA6902EA0C023A43DA61D1
:1071A000C4E71A6A02EA0C023A431A62BEE7019B7C
:1071B000013BD0E7836A43F020038362CEE700BF40
:1071C00000F0FFFF002401404C00002040420F006F
:1071D00010B590F824300446012B3DD0012380F8EF
:1071E0002430FDF711FA00283FD1A36A214A23F485
:1071F000405323F0010343F48053A3622368934276
:1072000005D1A2F58062526812F4702F25D1A26ACE
:1072100022F48012A262A26A12F4807208BFE262B3
:10722000002284F824206FF004021A605A68520584
:1072300012D49A6802F4E042B2F5E04F11D10D4A3F
:10724000934205D1A2F58062526812F4702F08D1E2
:107250009A6842F402129A6010BDA26A42F4801247
:10726000D8E79A6842F40042F5E7002384F8243016
:10727000F2E700BF0028014010B590F83D30044609
:1072800003F0FF020BB980F83C200223206884F849
:107290003D30211DFDF73CFA012384F8463084F887
:1072A0003E3084F83F3084F8403084F8413084F830
:1072B000423084F8433084F8443084F8453084F810
:1072C0003D3010BD90F83D30012B1ED1022380F8D7
:1072D0003D300368DA6842F00102DA600B4A9342FB
:1072E0000AD0B3F1804F07D0A2F59432934203D075
:1072F00002F58062934204D19A6802F00702062ADE
:1073000003D01A6842F001021A607047002C014055
:1073100013B500211920FFF76BFA4FF00072194BDB
:10732000194C1A60194B20469A6942F400629A611E
:107330009A6902F400620192019A5A685A685A687E
:107340005A68134A12685B68124AC3F3C223D25CBC
:10735000114B21611B68A160D340104AB3FBF2F3CB
:107360000F4A013B226040F2E7326360E260FFF7C0
:107370006BFA28B9204602B0BDE81040FFF7A2BF63
:1073800002B010BD00E100E09C140020001002409B
:10739000002002406CC200084C00002040420F0058
:1073A000002C0140054B1A69120605D5044A5A60A3
:1073B00002F188325A601B69704700BF002002400A
:1073C000230167452DE9F843FEF7F2FC35232D4DE7
:1073D0002D4CEB600120FFF7E5FFFDF7D1F9FEF73B
:1073E000E7FC237E012B07D001232376FFF774FAF5
:1073F000074668B300232376FFF7D4FF0025234F09
:10740000204EDFF88C80FEF7D3FC237E012B15D0B5
:10741000012337F815902376FFF75EFA60B9E06133
:10742000336943F00103336128F81590FFF754FAEC
:10743000336923F001033361002323760135282DBE
:10744000E1D1104A136943F080031361BDE8F8836A
:107450000F4E06F580684645CCD2E7612B6943F0B4
:1074600002032B616E612B6943F040032B61FFF730
:1074700033FA2B6923F002032B610028BAD106F5F9
:107480008066E8E70020024028160020141800203B
:1074900000FC0008F0B590F82040012C27D0012412
:1074A00090F8215080F82040A5424FF0000427D1E9
:1074B00002268463046880F82160266826F00106AD
:1074C0002660D0E90F67BD40756063604368102B8C
:1074D000C36A0BBFA260A160E160E26043B12368B0
:1074E00043F00E032360236843F001032360F0BDE3
:1074F000236823F004032360236843F00A03F1E7C1
:1075000080F82040F3E700002DE987480020FEF7CF
:10751000FDFC00238026894A894F13603A68894B15
:10752000894D1A600520FEF7D3FE0120FEF784FD89
:10753000E88D012180B2FEF797FC013EF2D1DFF821
:107540000C820196FCF794FE3B68DB6D8BB901223F
:107550003B684FF4FA6083F86020FEF781FE4FF03D
:10756000E0234FF08052C3F8042DBFF34F8FBFF3D9
:107570006F8FFCF76FFEFCF77BFE3B68D96D11B196
:107580003B68019ADA653B68019A83F86020FCF752
:1075900061FE002900F0C5800120FEF74DFD674B1C
:1075A00006461C68DFF8A8A1DFF8A8B1DFF8A891AB
:1075B000002C00F0AE80B4F5E17F28BF4FF4E174F9
:1075C000FEF714FDA04202D2FEF710FD0446A41BF4
:1075D000142CB3B20EDDBAF80000A3EB000C0FFAC6
:1075E0008CFCBCF1000FBCBFC01A0FFA80FCBCF1D0
:1075F000140F06DDAAF80030DBF80030C9F80030BF
:107600000BE0D9F80020DBF800309B1A44F620622A
:10761000934202D90123514A13705149DBF80020EB
:107620000B680020D31A4FF47A72B2FBF3F6DBF842
:1076300000300B60FEF73AFCAB8E9BB243B10A21DF
:10764000AB8E9BB24B439842C2BFA88E80B24843D8
:10765000444B1B6823B10A214B439842A8BF1846EC
:107660002823B3FBF6F3C3F16401D8F800304B4391
:10767000642193FBF1F350214C4394FBF6F41C443A
:1076800084423EDDC8F80000D8F800002B8D9BB284
:107690000BB340F6C4126B8D33499BB25343DBF8F6
:1076A00000400A68A21A934209D2AB8D9AB2DBF865
:1076B00000300B60FA2101FB02332C4A13602B8D42
:1076C0009BB2984207DA294ADBF8003012689A42E6
:1076D00084BF288D80B247F6DF72254B9B68002B54
:1076E000B8BF0333C3F38F03934288BF00201B4B03
:1076F0001B78002B18BF0020FEF708FCFEF758FB94
:1077000020E740428442ACBFC8F80040C8F80000FF
:10771000BAE7DBF80030AAF80000C9F800302046CC
:10772000B4E70A22134B1A80134B1970134B1B78C2
:10773000002B3FF407AFFEF76FFB03E7F8120020C2
:107740008C1700208417002014180020E01200205D
:10775000D8120020341D0020DC1200203814002034
:10776000E412002088170020EC120020E81200200C
:107770009812002048100020801700204D10002093
:1077800070B5124B0A26DC8D114BA0B29C6800220A
:10779000002CB8BF0334C4F38F04A400B4FBF0F48E
:1077A000A4B2B4FBF6F5012328460221FDF75BFFE6
:1077B00000210848FDF7D8FD012306FB1540BDE870
:1077C00070400022194680B2FDF74DBF141800200A
:1077D000C41200207AC100082DE9F047224B0A218B
:1077E000DB8D9AB2214B9B68002BB8BF0333C3F3E8
:1077F0008F039B00B3FBF2F3DBB2B3FBF1F201FBAF
:107800001233DBB2D4B2042B84BF0134E4B2092CAE
:1078100021D94FF00A090123B4FBF9F6144F194698
:107820000022F0B2B7F90050FDF71DFF0823DFF882
:10783000448009FB1640A8F80030012300221946B5
:10784000C0B23D80FDF70FFF00230C353D80A8F846
:107850000030BDE8F08701232046BDE8F0471A4616
:107860001946FDF700BF00BF14180020C412002005
:10787000FA110020FC11002038B5124D0446688C26
:1078800080B2C0B10020FEF7D7FB052300EBC0009B
:10789000B0FBF3F303F12000012303211A4680B269
:1078A000FDF7E1FE64B16B8C9BB23BB10020BDE8FB
:1078B0003840FEF79FB8FEF7BFFBEDE70120F6E783
:1078C00038BD00BF141800202DE9F04F9A469C4C9B
:1078D0009C4B87B01E6894F83D308046202B89462B
:1078E0009346109F04D00225284607B0BDE8F08FCC
:1078F0003346192201219448FEF752FF0028F2D1A5
:1079000094F83C308B42EED0256884F83C102B680C
:107910003A46D80758BF2B684FF001105CBF0B43A5
:107920002B602B68002123F400632B60222384F852
:107930003D30402384F83E30844B2164A4F82AA0D3
:10794000E362638DC4F824B023852B6843F480631D
:107950002B602B6843F480732B603346FEF720FFC7
:1079600000BB236808F0FE001861314638465FFA14
:1079700088F5FEF7E5FE08B1236C13E02368059057
:107980005A69314605929B6938460593059BFEF777
:1079900079FE80B1236C042B04D12268136843F470
:1079A00000731360236C042B4FF0000384F83C3009
:1079B00078D1012598E7236831463846C3F81090FE
:1079C000FEF760FE01460028E4D122684FF0011066
:1079D000136843F48073136033463A46FEF7E0FEC3
:1079E0000028DFD1236845F001051D613146384686
:1079F000FEF7A6FE05460028BED1228D23689AB167
:107A0000012A27D11A6822F480621A6072B62368AC
:107A100003905A6903929A690392039A1A6842F48E
:107A200000721A6062B609E004905A6904929A6979
:107A30000492049A1A6842F400721A60DFF8108106
:107A4000238D1BBB202284F83C3084F83D2084F831
:107A50003E3049E7022A1A680ED142F400621A60E9
:107A600072B6236802905A6902929A690292029A47
:107A70001A6822F48062D4E742F480621A600190AE
:107A80005A6901929B690193019BD7E7032B61D847
:107A9000012B09D131463846FEF724FE10B3236C82
:107AA000202B86D103251FE7022B3A4633464FF0A1
:107AB0000001404624D1FEF773FE0028F2D172B6D1
:107AC00023681A6842F400721A601A69636A591CC2
:107AD00061621A70238D013B2385638D013B9BB24C
:107AE000638562B623681A69636A591C61621A70F9
:107AF000238D013B2385638D013B9BB263859FE70B
:107B0000FEF74EFE0028CDD12268136823F480636F
:107B1000136072B623681A69636A581C60621A702F
:107B2000238D3A46013B2385638D4046013B9BB242
:107B300063853346FEF734FE0028C1D0B2E700BFAC
:107B40003C1400206C180020020010000000FFFF11
:107B50000400010031463846FEF7C4FD00289ED1DE
:107B600023681A69636A591C61621A70238D013B8C
:107B70002385638D013B9BB2638523685A69520755
:107B80007FF55EAFAFE700BF90F83C30F0B5012B5A
:107B900032D003680E681A6A22F001021A621A6A69
:107BA0005D689C6922F0020224F0730434438E68FD
:107BB0003243124EB3420BD1CE6822F00802324358
:107BC00025F44075D1E905673E4322F004023543B0
:107BD0005D609C614C6809695C631A629A6942F055
:107BE00008029A619A6922F004029A619A690A432A
:107BF0009A61002380F83C30F0BD00BF002C0140AA
:107C0000482373B50193019B0146482B08D04FF0E0
:107C1000500383F31188BFF36F8FBFF34F8FFEE7DD
:107C20000024019B01230860C0E90F34FCF720FB0E
:107C3000D0E90F356B4302688463D6185B1B13448D
:107C4000C360FF2342604FF0FF3280F8443080F879
:107C5000453000F11803C0E906234361036200F1D7
:107C60002C030461C0E90A32C0E90C338660446227
:107C7000FCF7F0FA02B070BD38B50546FEF76AFAB7
:107C8000C0B10D4C4DB1D4F8E41004F164032022CE
:107C9000284603EB411104F0FBF9D4F8E43094F8E2
:107CA000EC20013303F00303C4F8E43012B10BB944
:107CB00084F8EC3038BD00BF4816002010B5194CD0
:107CC00088B0E16B01F07F41E163FEF743FA28B32E
:107CD0006846FFF7D1FFBDF8023003F01F02012A0A
:107CE00015D113F4E04F12D194F82920C3F34223A5
:107CF00093420CD1E26B013303F0070342F004021C
:107D000094F8300084F82930E26308B010BDE36BCA
:107D100043F00803E36394F83100F6E741F008010B
:107D2000E163F8E74816002070B59F4C88B004F175
:107D3000440594F83061182E00F28481DFE816F0D3
:107D4000D90102020B02190033001D002D0054005E
:107D500091009B00A500D800F20065016E01790139
:107D6000820184018D0196019C01B901CA01CE00F6
:107D7000D001042384F83031DBE7002384F82C3071
:107D800084F83131E3632369984742F2107220642A
:107D900023210620FEF7F0F9A7E0E36B03F07F4212
:107DA0009B06E26301D50523E4E7FEF7D3F900283B
:107DB000F9D02846FFF760FFB4F8462002F01F0311
:107DC000012BF2D112F4E04FEFD0638D13F0C00F0E
:107DD00008D102F0C0027F2A8CBF43F0800343F039
:107DE000400363850723C5E7FF2384F82E30002373
:107DF000B4F846206D49C2F302329A420CD051F8D1
:107E0000040B013300F04046B6F1404FF5D110F0BD
:107E1000405FF2D184F82E30A36C6549C3F3C06390
:107E200084F82830A1F1CC00A3699847B8B1638DDC
:107E3000B4F812211A4303F0C003802BA4F81221D6
:107E40000BD1D4F8143194F82E20C3F3027393426B
:107E50002CBF0123002384F8313108238AE706234D
:107E600088E70F210920E36B514A03F07F43E36366
:107E7000FEF720F939E0E36B03F07F43E36340F65C
:107E80008C2240F603010A2084E7E36B03F07F4372
:107E9000E363FEF75FF90028F1D02846FFF7ECFE18
:107EA000B4F8463003F01F01032906D113F4E04F64
:107EB000EFD141F288320B206CE70D2904D113F485
:107EC000E04FE6D1112010E003F01702042AE0D1C0
:107ED00013F4E04FDDD194F82C302BB14FF0FF328A
:107EE00040F6FF710C2055E7052084F8300118E1B9
:107EF000E36B03F07F43E363FEF72CF980B1284680
:107F0000FFF7BAFEB4F8463003F01F02062AF3D199
:107F100013F4E04FF0D1012384F82C300C2329E72F
:107F2000122327E7E36B03F07F425E06E26362D42D
:107F3000980662D4190662D4DA0501D50720D4E781
:107F40009B07CBD5FEF706F90028C7D02846FFF7D8
:107F500093FEB4F8463003F01F020F2A17D113F432
:107F6000E04FBBD1618D01F0C0018029B6D11E0464
:107F700005D5B4F84810C1F308011A2941D8102AD0
:107F800041D113F4E04F14BF12201720ADE7052AAA
:107F900003D113F4E04FE5D1A0E7092A0AD113F485
:107FA000E04FDFD11520A0E74816002090160020F2
:107FB00058170020072AF2D00A2AF0D00B2AEED058
:107FC000022AEFD0042A03D113F4E04FCAD0E9E724
:107FD000012A03D113F4E04FC4D0AFE7082A04D13B
:107FE00013F4E04FBED10E207FE70D2ABAD113F46F
:107FF000E04FB7D166E7082077E70F2075E70D203F
:1080000073E7162071E712206FE7638D43F00703D3
:10801000A4F846302A460F210C2029E7618D284616
:1080200001F0C0017F2994BF0021012163699847B5
:10803000F0E794F92D30022B59DC013384F82D3010
:10804000102397E6032395E6638D6A4643F00D03FC
:108050000F210520ADF802300AE7638D2A4643F070
:108060000D030F211320A4F8463001E740F68C22BF
:1080700040F6030114208DE6E36B03F07F43E363D6
:10808000FEF768F860B12846FFF7F6FDB4F8463011
:1080900003F01F02032A05D113F4E04F3FF483AE2F
:1080A0000F2367E60D2AFBD113F4E04FF8D111231B
:1080B00060E6638D03F0C002402A06D143F004035A
:1080C000A4F846302A461221A6E7802AFAD143F0C6
:1080D0001003F5E7E3694FF4FA709847152349E672
:1080E00000234FF4FA6084F82C30E3699847182392
:1080F00040E623699847A36B984282BFE36B43F441
:108100000063E363E36B180512D503F07F43E36379
:1081100094F82F30113B032B94BF0326122684F8CA
:10812000306194F83031002B7FF403AE08B070BD9D
:10813000D90705D4626B1342F1D094F82F60EEE7B3
:108140001026ECE7E26B02F07F439205E36309D56A
:10815000FEF700F810B1FFF7B1FDC6E60221782264
:10816000084617E643F0080394F83100E363BCE6E1
:108170002DE9FF48FEF73AF8A0B101210C20FDF7E8
:1081800089FF78B1AF4D0A20EB6898470624FEF7C7
:1081900013F8002862D10A20EB68013C984714F0DC
:1081A000FF04F4D1FFF7C0FDDFF89CA2A74CDAF87A
:1081B0000830990500F1EA80DAF808309A0500F1F4
:1081C0006B8107223C216568207802ABA847002814
:1081D00000F062819DF80B30DB0740F145819C4D3A
:1081E00005F18C089B4E06F1020941212046FDF75E
:1081F000A7FC870600F1388143212046FDF7A0FC4B
:10820000334602224321676800F0E00B2078B8472C
:10821000B4F8F23013F4E04FC3F3023205D04B460A
:108220004321676820789200B84704224321676899
:10823000894B2078B847BBF1E00FD6D1B4F8F230C3
:1082400003F01F020D2A40F0D88013F4E04F40F0F5
:10825000D480E36B43F00103E363C3E70F210B20FA
:10826000FDF718FF00289DD000210A20FDF712FF1E
:10827000002897D000210E20FDF70CFF002891D098
:1082800000210F20FDF706FF00288BD00C210620CF
:10829000FDF700FF002885D007210920FDF7FAFE31
:1082A00000283FF47FAF00210820FDF7F3FE0028EF
:1082B0003FF478AF04210720FDF7ECFE00283FF4DF
:1082C00071AF07210220FDF7E5FE00283FF46AAFF9
:1082D0000A20EB68984740215A48FDF731FC0B21F2
:1082E00004460220FDF7D6FE00283FF45BAF0A20CB
:1082F000EB68984740215348FDF722FC04F0030443
:1083000000F00300844238D925210320FDF7C2FE86
:1083100000283FF447AF07210220FDF7BBFE0028ED
:108320003FF440AF44210620FDF7B4FE00283FF49F
:1083300039AF04210720FDF7ADFE00283FF432AF2E
:1083400002210C20FDF7A6FE00283FF42BAF0323EB
:108350004FF400740593414B3B48CDE902430123A0
:1083600002A90493FCF776F80A211720FEF740FAD9
:108370004FF400023A4B1A6014E726210320FDF760
:1083800089FE00283FF40EAF0B21C5E7354DFBF702
:108390006FFF2B6893F86030022B13D02B6864209A
:1083A000DA6DDA6501222B6883F86020FDF758FF4B
:1083B0004FF0E0234FF08052C3F8042DBFF34F8FEE
:1083C000BFF36F8FFBF746FFFBF752FF2B6893F865
:1083D0006030022B03BF2A680121D36D002104BF46
:1083E00003F07F43D36500222B6883F86020FBF7FE
:1083F00031FF00293FF4E0AEE3E6D4F8E8002022A4
:10840000414605EB401003F043FED4E939239A427C
:1084100003F1010306D194F8EC201AB103F0030232
:10842000C4F8E420D4F8E42003F003039342C4F832
:10843000E83004BF012384F8EC30E36B43F002031F
:108440000AE700BFFC120020000801404816002087
:10845000AC1600203A170020F21200200000211074
:1084600000E100E08C1700209DF80A305E0742BF53
:10847000E26B42F40072E263DD0642BFE26B42F45B
:108480008062E263180607D59DF80D30990742BF58
:10849000E36B43F02003E363FFF746FC94F83131CC
:1084A0007BB123699847D4F83431C01AB0F57A7F8C
:1084B00007D9E36B43F04003E36323699847C4F8AB
:1084C0003401FDF7A3FE00283FF471AE94F830317B
:1084D000182B04D094F82C30002B7FF468AE9F4BFF
:1084E0009F4DDA89DF8D2B7812B20192BFB29BB912
:1084F0009C4BDFF874829B68002BB8BF0333C3F337
:108500008F039B00B3FBF7F39BB2502B57D90B2380
:1085100088F8003003232B70019B272B7FF747AE91
:10852000924B1B68B3F57A7FFFF441AE2B78012B99
:108530007FF43DAE8B4B4FF480699B68DFF830824F
:10854000002BB8BF0333C3F38F039B00B3FBF7F7D4
:10855000019B3FB2DF1B07EBD7756E103546002D30
:10856000C0F2D280012FC6F10005C8BF00254FF42C
:1085700080684FF4807735447D4E002D00F0E9800F
:108580004FF40029CAF810801E20CAF81070C6F8EF
:108590001090FDF79DFE0823CAF810800A20CAF843
:1085A00010703361FDF794FECAF810801E20CAF8DF
:1085B0001070C6F81090FDF78BFE013DDDE798F8CE
:1085C00000600A2EA6D808220123CDE90223032346
:1085D000DFF89CB102A958464FF000090593FBF75C
:1085E00039FF4FF4A063CDE903990293FBF732FF03
:1085F0004FF4F04350460293CDE90399FBF72AFF6D
:108600004FF40023CBF810300A20FDF761FEB9F1DA
:10861000820F1FFA89F160D9DAF808208C2982F4D8
:10862000006BCBF3C02B0CD1032200230592022256
:10863000CDE903324FF40062504602A90292FBF7E3
:1086400009FFB9F1C70F04D009F10109BBF1000F0F
:10865000DAD000234FF00309CDE903334FF4006370
:10866000504602A9CDF814900293FBF7F3FEBBF13C
:10867000000F43D04FF480624FF08073CAF810208F
:10868000CAF810300823DFF8E8B04FF0010CCBF83F
:1086900010304FF4A063CDF81490CDE9023CFBF705
:1086A000D9FE4FF080734FF48062CAF81020CAF8E8
:1086B000103008234FF00A09CBF81030294B9B6883
:1086C000002BB8BF0333C3F38F039B00B3FBF7F357
:1086D0009BB2502B04D901231DE74FF0000BB0E7EC
:1086E000642009F1FF39FDF7F3FD19F0FF09E5D129
:1086F000013685F8009088F800600DE7013688F8AB
:10870000006085F8009007E74FF480734FF4002B6A
:10871000CAF810901E20CAF81030C8F810B0FDF743
:10872000D7FD4FF08072CAF810900A20CAF81020C6
:10873000C8F810B0FDF7CCFD4FF48073CAF8109064
:108740001E20CAF81030C8F810B0FDF7C1FD013581
:1087500005E76420FDF7BCFD29E500BF14180020E3
:108760004A100020C41200204B100020341D0020AD
:10877000000C01402DE9FF4100230446019340B95C
:108780004FF0500383F31188BFF36F8FBFF34F8F08
:10879000FEE7026C42B14FF0500383F31188BFF340
:1087A0006F8FBFF34F8FFEE7FCF732FA50B9019B92
:1087B0004BB14FF0500383F31188BFF36F8FBFF3BA
:1087C0004F8FFEE7104600256C4E6D4FACE0A5685C
:1087D000C5B900250022A2600136A663626A002A9C
:1087E00065D004F12400FCF783F8002861D04FF035
:1087F000E0234FF08052C3F8042DBFF34F8FBFF337
:108800006F8F56E05F4B1B689D4208D04FF05003BE
:1088100083F31188BFF36F8FBFF34F8FFEE7AB6D0C
:1088200043B94FF0500383F31188BFF36F8FBFF349
:108830004F8FFEE7E96A6A6D013B9142AB65C8D094
:10884000002BC6D105F104084046FCF738F8DFF8E4
:1088500038C14E4A58B91420EF6A78435CF80030AA
:108860002BB901211368B94023EA010313606B6D32
:108870001420C3F10601EB62A9610125116805FA14
:1088800003F70F4300FB03C041461760FBF7F4FFFB
:10889000A0E70021606803F0FBFB6368226C1344CF
:1088A000A2686360934224BF236863604AE0002D9E
:1088B0009DD1FBF7CFFC04B0BDE8F081019B002BFC
:1088C000F7D018B9336802933B680393FBF7C2FCF7
:1088D000FCF706F8FBF7CCFC94F8443001A9FF2B19
:1088E00008BF84F8445094F8453002A8FF2B08BF15
:1088F00084F84550FBF7AEFCFCF73CF8002836D175
:10890000FBF7B6FCA26BE36B9A421DD1FBF7A2FC0E
:1089100004F110000199FDF721FD2046FCF788F9CC
:10892000FCF700F9C0B10120FBF7A2FCA26BE36BDE
:108930009A42C3D2226CA66B002AAAD12368002BCC
:108940003FF445AF002547E72046FBF783FCFCF7E3
:108950006FF9FCF7E7F8E6E74FF0E0234FF08052BD
:10896000C3F8042DBFF34F8FBFF36F8FDBE72046B3
:10897000FCF75EF9FCF7D6F89DE700BF141D002058
:10898000341D00208C170020981700207C18002030
:10899000014B1868FFF7EEBE001200202DE9F843E6
:1089A00005460F4690461E46FDF750FE044650B160
:1089B0002846FDF7D1F8FDF731F938B9FDF7E8F8A9
:1089C0000024FFF7E5FF2046BDE8F8833846FDF7B1
:1089D00025F90028F2D04FF400131A4F3B610F2302
:1089E00000BF013BFCD145F00100FDF7B5F8FDF7F4
:1089F00015F904460028E1D01FFA88F14FF002086B
:108A0000D1B14FF008090025FDF7DAF86D00EDB29D
:108A100009F1FF39054319F0FF09EDB2F4D101293D
:108A20000CBF08464846C7F810800139FDF7DEF84C
:108A300089B206F8015BE3E7FDF7AAF8FFF7A8FFA4
:108A4000C1E700BF000801402DE9F04180460F4614
:108A500015461E46FDF7FAFD044618B34046FDF7DD
:108A60007BF8FDF7DBF8044628B9FDF791F800BE66
:108A7000FFF78EFF16E03846FDF7D0F804460028D1
:108A8000F3D0ADB2013E9DB1FDF792F916F8010F9A
:108A9000FDF7C4F8074640B9FDF77AF800BEFFF7C6
:108AA00077FF3C462046BDE8F081013DADB2EAE7E4
:108AB000FDF76EF8DCE70000014B1868FFF75ABEBF
:108AC0004C1200202DE9F04385B0814688468DF890
:108AD0000720FDF7CBFD0646002851D06C4F6D4CAA
:108AE0003D6894F83D30202B45D12B4619220121B9
:108AF0006948FDF755FE00283DD194F83C308B4283
:108B000039D0236884F83C101A684FF00110D2075E
:108B10005EBF1A680A431A601A68002122F40062D4
:108B20001A60212384F83D30402384F83E300DF153
:108B300007036362012321646385A3F10113E362E8
:108B4000638D22682385136843F4807313602B467A
:108B50004FF4FA72FDF724FE48B9236829464FF412
:108B6000FA70C3F81090FDF7EBFD68B1236C236C2D
:108B7000002384F83C30FEF707F90026FFF79CFF3E
:108B8000304605B0BDE8F083236803905A69294652
:108B900003929B694FF4FA700393039BFDF772FDF8
:108BA00040B1236C042BE2D12268136843F40073B4
:108BB0001360DCE72368C3F81080238D9BB922681B
:108BC000536913F004033FD0136843F40073136038
:108BD000202384F83D30002384F83E3084F83C3074
:108BE000FFF76AFFCCE729464FF4FA70FDF74AFD1C
:108BF00040B1236C042BBED12268136843F4007388
:108C00001360B8E7616AD4F800C04B1C63620B784C
:108C1000CCF81030638D228D013B501E9BB280B288
:108C200020856385DCF814305B07C6D50028C4D0E6
:108C30008B1C63624B78023ACCF81030638D22852E
:108C4000013B9BB26385B8E7516911F480610ED096
:108C50006FF480615161042121642021236384F831
:108C60003C3084F83D10236C042B84D1C5E73B686D
:108C70005B1BB3F5FA7FA3D9236C84F83C1043F057
:108C8000200323642023216384F83D30EBE700BFF9
:108C90006C1800203C1400200200100013B50021C5
:108CA000134B0846009318221023FCF7C5FA5222F2
:108CB000104B114C1A800022B4F846000F4B80B2C2
:108CC000801A18BF01201A80FCF797FEB4F84630CE
:108CD00080219BB2002B14BFA722A6227820084B2C
:108CE00083F8402002B0BDE81040FFF7EBBE00BFA4
:108CF000A1EB0008FA11002014180020FC1100203C
:108D0000000000202DE9F041804617460C46002661
:108D1000404662782178FFF7D5FE054640B1A0783D
:108D200008B1FBF72DFD0136B74204F10304EFDC77
:108D30002846BDE8F081000013B5144B00210093D4
:108D4000102308461A46FCF777FA3A22104B114CCA
:108D50001A800022104BB4F848001A800B2380B20E
:108D6000B0FBF3F0012301301A46032180B2FCF777
:108D70007AFC02227820B4F84830084981F82E3075
:108D80002A3102B0BDE81040FFF7BCBF74E800080C
:108D9000FA11002014180020FC110020000000200F
:108DA00038B5124D80F001042B78A34219D0104B36
:108DB000C4B1C8221A74A1221A77782019220C494A
:108DC000FFF7A0FF002C14BF00222022094B2C70BB
:108DD0005A7114BF5F227F22DA7114BFC822C022E9
:108DE0005A7238BDC0221A74A022E5E7381100205B
:108DF000000000205410002010B50620FCF746F8B3
:108E0000054B04461B8A98B218B1012801D02046B0
:108E100010BDFFF7C5FFFAE71418002030B585B084
:108E20000546FDF723FC044668B14FF47A730F2121
:108E300000932846012303AAFEF746FDB0FA80F40A
:108E40006409FFF739FE204605B030BDF7B5054689
:108E50000F46FDF70BFC002868D000233C4C019323
:108E600094F83D30202B13D146F2A812394B1B68E1
:108E7000B3FBF2F31922534322680193019B591E5D
:108E8000019163B92022236384F83C3084F83D20AB
:108E9000FDF77AFF03B0BDE8F040FFF70DBE936920
:108EA0009907EBD494F83C30012BF1D0012384F8DE
:108EB0003C3013680026DB0758BF13684FF0780179
:108EC0005CBF43F001031360136823F40063136075
:108ED000212384F83D30102384F83E301E4B266455
:108EE0006785E362638D65629BB223856164FBB134
:108EF000606B1A491032816219494663C0E90B61FF
:108F00002946FEF7C7FA23681A6842F480621A609D
:108F10001A6842F480721A6084F83C605A6842F41D
:108F200040725A605A6842F400625A6003B0F0BD61
:108F3000116841F480611160116841F48071116021
:108F400084F83C30536843F4E0635360EEE700BFBD
:108F50003C1400204C0000200000FFFFE15C0008F2
:108F60004F5D0008D1210148FFF770BF5410002069
:108F7000F7B504460D4616461F46FDF777FB80B150
:108F80004FF4FA733246009329463B462046FEF7DB
:108F90009BFC08B1FDF7F8FE03B0BDE8F040FFF719
:108FA0008BBD03B0F0BD00002DE98048142091B0C6
:108FB000FDF78EF900238E4C32202360FFF72EFF41
:108FC000002800F091800C2232208A49FFF79AFE97
:108FD000002800F08980032332202360FDF778F910
:108FE0000022854B1A60854B1B8B9BB21BB14FF443
:108FF000FA60FDF76DF9102200210CA803F070F85B
:109000001022002108A803F06BF810220024002190
:109010000DEB020003F064F8264627464FF00309E3
:109020002546DFF8DCA1754BC821B3F812801FFA82
:1090300088F340F6E44801FB138301936C4BD3F8AB
:1090400000B0BBF1030F61D10623A821322002AA90
:10905000FFF78EFF02AA0123B5213220BDF9084097
:10906000BDF90A60BDF90C70FFF782FF9DF808207A
:109070004FEA9209B9F1080F73D0B9F1010F06D088
:10908000B9F1020F0CBF4FF000094FF003095B4B21
:109090001B8A9BB2022B07D1B9F1030F04D0B9FA96
:1090A00089F04009FFF77CFE10AB03EB450323F882
:1090B000104C23F8206C23F8307C9AF800300135EE
:1090C0000DF1300C08A8002B50D129466B000DF192
:1090D000100E072947D8013123F80C401E5223F8FF
:1090E0000E70C9B20233F4E74C20FFF797FE38B197
:1090F00005224C204349FFF705FE08B105236BE725
:1091000000210720FBF756FE012365E7BBF1050FA1
:10911000BDD1062302214C2002AAFFF729FF00231C
:10912000BDF908400C218DF808304C20012302AA1B
:10913000BDF90A60BDF90C70FFF71AFF9DF8083001
:10914000A410602B4FEAA6064FEAA70706D0702BA3
:1091500014BF4FF003094FF0000998E74FF00109E1
:1091600095E7D94693E701238AF80030E0464FF0AF
:10917000000C024661466046634605F007050DF1A6
:10918000100E38F902BB0CF1010C5B4432F902BB42
:109190005FFA8CFC58443EF902BBBCF1080F5944FD
:1091A000EFD1002BB8BF0733C4EBE303002BB8BFEC
:1091B0005B420028B8BF0730C6EBE0000028B8BF0C
:1091C00040420029B8BF0731C7EBE101002918442C
:1091D000B8BF4942019B01448B42B8BF0A4B4FF0D4
:1091E0006400BEBF1968044B1960FDF771F81AE7F7
:1091F000A400002025E600082016002014180020F6
:10920000F612002016E60008341D0020024BC02292
:109210000021186802F064BF3011002038B50546FF
:109220000C46FFF7F3FF2846FCF7B6F8FFF79AFE67
:109230002046BDE83840FDF76DB800002DE9F84F35
:109240000024714B714D1C60D5F80090FBF7C2FEF5
:10925000B0EB040818BF4FF001082746A2466C4B3C
:10926000A3F800A06B4BA3F800A0FFF7CFFFFBF71C
:10927000B1FE002800F0B280D5F80090B8F1000FE0
:1092800002D00024002335E001380F28FAD801A3CA
:1092900053F820F0CD930008A193000885920008B0
:1092A000AF93000885920008859200088592000817
:1092B000D5920008859200088592000885920008E2
:1092C0008592000885920008859200088592000822
:1092D000059400082A68E31B1344B3F5967FD1D99F
:1092E0004D4BDA8E1B8F92B2002A6DD021342F683D
:1092F0001BB2E4B2484EC4F59672B188632A194491
:10930000738C98BFC8249BB289B2002B69D03C29CA
:1093100040F2523338BF3C21994228BF1946002001
:10932000FBF748FD2B68A3EB0903B3F5FA6F69D887
:109330003A4B012193F800B0F38E9BB2BBF1000FC2
:1093400058D13748374A002B08BF1046FCF70CF8B5
:1093500001213548FCF708F80123B0881A4603219B
:1093600080B2FCF780F9738C9BB2002B45D00020B3
:10937000FCF740FB01212C48FBF7F6FFF38E01219F
:109380009BB2BBF1000F3AD12648254A002B08BFFB
:109390001046FBF7E9FFFFF7E5FDFCF7B7FF5EE7D7
:1093A0001D4BDA8E5B8F92B2B2B11BB2A2E72A6874
:1093B000E31B1344B3F5967F7FF664AF164BDA8E4A
:1093C0001B8F92B2002A91D05B428FE7124BDA8E4C
:1093D0005B8F92B2002AE8D05B42E6E70446804603
:1093E00050E70A2938BF0A21B1F5E17F28BF4FF4C1
:1093F000E17194E70B480A4AA5E70120B8E708485D
:10940000084AC3E7BDE8F88FF8120020341D002099
:10941000FA110020FC11002014180020381100203F
:1094200082C1000884C100084EC200082DE9F84F2F
:1094300005460F46534C544E638C9BB2002B7DD097
:10944000002D79D1E3889AB2A3889BB2934228BFBA
:1094500013461F2B70D9092203EB8303A03BB3FBF8
:10946000F2F3608C336080B2002871D00020FCF7EA
:10947000E3FD4FF0050800EBC000B0FBF8F808F181
:1094800020081FFA88F84FF00009FFF7BFFEB4F874
:1094900020A03E4BDFF8F8B01FFA8AFAA3F800903C
:1094A000ABF80090BAF1000F59D049463948FBF7A4
:1094B0005BFF364B4946A3F8009008233648ABF8CB
:1094C0000030FBF751FF032101234A464046FCF7D9
:1094D000CAF8618C89B200293FD049462F48FBF772
:1094E00043FF00212E48FBF73FFFFEF749F900211B
:1094F0002C48FBF739FFFFF735FDFCF707FF38462F
:10950000FBF7F4FBB0B1638B9BB263B1264B1968D8
:1095100049B1264B1A68638B521A4EF660219BB2F2
:109520004B439A4203D8FBF755FD082884D100230A
:1095300001203360BDE8F88F002392E7002D90D121
:10954000E3889AB2A3889BB2934228BF134688E768
:10955000FCF772FD1FFA80F895E71548BFE7012177
:109560001448FBF701FF012303211A464046FCF78C
:109570007AF8638C9BB21BB15046FCF73BFABAE712
:109580000120FAE714180020F8120020FA11002038
:10959000FC11002049C7000855C7000878C1000821
:1095A0004EC2000886C1000820160020341D00208D
:1095B000CDC1000844C700082DE9F84F18BB0026AC
:1095C0003546B64CFBF706FD002E00F0C280E38C5A
:1095D0009BB2002B00F0BD80102822D8102823D881
:1095E000DFE810F0E200050105012200FA00220088
:1095F0002200220005012200220022002200220077
:10960000220022000501831E584258410121FFF724
:109610000DFF0128D3D1A24B1A68A24B1A60BDE8F6
:10962000F88F202800F0D1804FF0000ADFF8788210
:109630009E4FA8F800A0A7F800A0FFF7E7FD238C35
:10964000DFF86C929BB2002B00F0F7800120FEF750
:1096500013F9638A9BB23BB323899BB223B32F23B5
:10966000A7F800A0A8F80030FBF728FB8C498D4B29
:10967000904A09681B681268401A9A422CBF8018E9
:10968000C0188D4B984240F2CA804EF66023B0FB62
:10969000F3F00130022180B201235246FBF7E3FFD1
:1096A00051468648FBF760FE45B13623A8F80030E6
:1096B0000823002182483B80FBF756FE4FF00A0A40
:1096C000D9F800004FF0000B4FF04303B0FBFAF065
:1096D0005A460221A8F8003080B20123A7F800B052
:1096E000FBF7C1FF59467748FBF73EFED9F800006B
:1096F0005A46B0FBFAF30AFB1300012380B2194665
:10970000FBF7B1FF59467048FBF72EFE4FF04303BD
:10971000A8F8003008233B80FEF732F859466B4822
:10972000FBF722FEFFF71EFC638C694F9BB2002DF6
:1097300000F0FC80002B00F0F680238E9BB21F2BE4
:1097400040F2D980092203EB8303A03BB3FBF2F381
:10975000D2E010282AD810283FF666AF01A353F8AC
:1097600020F000BFA9970008079800080798000894
:1097700029960008FB9700082996000829960008FA
:10978000299600081F9600082996000829960008C7
:1097900029960008299600082996000829960008AD
:1097A000299600081F96000800253DE720287FF431
:1097B0003BAFE38C9BB2002B3FF436AF4FF47A7192
:1097C0004448FFF72BFD01262EE74FF47A714248FB
:1097D000FFF724FD002627E7238E9BB2002B3FF4E2
:1097E00023AFE38C9BB2012B08BF35461CE74FF437
:1097F000FA713A48FFF712FD16E7238E9BB2002B51
:1098000018BF012510E7A788FFF718FDA388BFB28E
:109810009BB2BB423FF408AFFDF7D4FD04E74FF421
:109820007A73B0FBF3F00130022180B2012352467B
:10983000FBF719FF51462A4834E72A4B1978C9B17A
:10984000FDF7CAFF28480121FBF78EFD0120FEF736
:1098500013F855B10220FCF7CDF80021D9F800002B
:10986000FCF73AFBFCF72AF95CE701211E48FBF7FD
:109870007BFDF2E7D9F80000FCF72EFBFCF71EF9A0
:10988000A5B30220FCF7B6F80120FDF7F5FF012192
:109890001548FBF769FDFDF79FFF43E7141800200B
:1098A000341D00201C160020FA110020FC1100209D
:1098B0008018002020160020B88201007CC100081A
:1098C00082C100087AC1000880C1000886C1000872
:1098D000F812002094C7000899C70008A0C7000824
:1098E0007EC10008381100204EC20008012117482F
:1098F000FBF73AFDC8E7002300203B60FBF7F6F9D1
:10990000C8B9DFF84C800020FCF796FB98F80030CF
:10991000C3B1002442F210710E483C60FFF77EFC98
:1099200088F800407BE6238E9BB2E5E70BB1A38865
:1099300004E7A388F8E700210846FFF777FD002831
:10994000DFD06CE6FCF7E2FC3CE600BF4EC200084C
:1099500038140020A8C70008F8B5036805460E466D
:109960007BB902600120334601211F784C1EA4B24E
:1099700077B1F02F93F801C005D80133013189B2D6
:10998000F3E70020EFE7BCF1000F01D00233F5E769
:1099900004EB4404A400A4B2602C2AD92B68D31A87
:1099A000184A928C92B2012A0CBF0A221422B3FBED
:1099B000F2F304F160021BB293FBF2F102FB1133EC
:1099C0005F2B1CDDA34218DC1CB2B5F90430A342A6
:1099D0000ED0FFF71BFC0C4BC4F160021A80002272
:1099E0000A4B304601211A80FBF7BEFC0120AC80F7
:1099F000F8BDC4F1600304EB630424B2E5E760241E
:109A0000E3E700BF14180020FA110020FC11002029
:109A1000002373B500934FF6FF7304460C4EADF868
:109A20000430214668463268FFF796FF0546FBF78B
:109A3000D1FA38B9002DF4D0FFF794FA2820FCF7BA
:109A400047FCEEE7431E5842584102B070BD00BFCC
:109A5000341D00202DE9F0472E48FFF7D9FF0028DC
:109A600054D02D4E2D4F00252C46FCF7CFFA4FF049
:109A70000009DFF8AC800444FFF7C8FB0121384639
:109A8000A6F80090A8F80090FBF76EFCC5F3850AD5
:109A90005FFA89F39A4506D901213846FBF764FC41
:109AA00009F10109F4E7FFF75DFA01356420FCF7DD
:109AB0000FFC102DD9D148F2E803C4F30F145C4316
:109AC0006423E40B5C435B23B4FBF3F4154B5B8E24
:109AD000154B1C60A4B2002CC5D021461720FBF703
